:020000040000fa
:080000000002040000000000f2
:020000040000fa
:04000800c40300002d
:020000040000fa
:04000c00c403000029
:020000040000fa
:04001000c403000025
:020000040000fa
:04001400c403000021
:020000040000fa
:04001800c40300001d
:020000040000fa
:04001c00c403000019
:020000040000fa
:04002000c403000015
:020000040000fa
:04002400c403000011
:020000040000fa
:04002800c40300000d
:020000040000fa
:04002c00c403000009
:020000040000fa
:04003000a802000022
:020000040000fa
:04003400c403000001
:020000040000fa
:04003800c4030000fd
:020000040000fa
:04003c00c4030000f9
:020000040000fa
:04004000c4030000f5
:020000040000fa
:04004400c4030000f1
:020000040000fa
:04004800c4020000ee
:020000040000fa
:04004c00c4030000e9
:020000040000fa
:04005000c4030000e5
:020000040000fa
:04005400c4030000e1
:020000040000fa
:04005800c4030000dd
:020000040000fa
:04005c00c4030000d9
:020000040000fa
:04006000c4030000d5
:020000040000fa
:04006400c4030000d1
:020000040000fa
:04006800c4030000cd
:020000040000fa
:04006c00c4030000c9
:020000040000fa
:04007000c4030000c5
:020000040000fa
:04007400c4030000c1
:020000040000fa
:04007800c4030000bd
:020000040000fa
:04007c00c4030000b9
:020000040000fa
:04008000c4030000b5
:020000040000fa
:04008400c4030000b1
:020000040000fa
:04008800c4030000ad
:020000040000fa
:04008c00c4030000a9
:020000040000fa
:04009000c4030000a5
:020000040000fa
:04009400c4030000a1
:020000040000fa
:04009800c40300009d
:020000040000fa
:04009c00c403000099
:020000040000fa
:0400a000c403000095
:020000040000fa
:0400a400c403000091
:020000040000fa
:0400a800c40300008d
:020000040000fa
:0400ac00c403000089
:020000040000fa
:0400b000c403000085
:020000040000fa
:0400b400c403000081
:020000040000fa
:0400b800c40300007d
:020000040000fa
:0400bc00c403000079
:020000040000fa
:0400c000c403000075
:020000040000fa
:0400c400c403000071
:020000040000fa
:0400c800c40300006d
:020000040000fa
:0400cc00c403000069
:020000040000fa
:0400d000c403000065
:020000040000fa
:0400d400c403000061
:020000040000fa
:0400d800c40300005d
:020000040000fa
:0400dc00c403000059
:020000040000fa
:0400e000c403000055
:020000040000fa
:0400e400c403000051
:020000040000fa
:0400e800c40300004d
:020000040000fa
:0400ec00c403000049
:020000040000fa
:0400f000c403000045
:020000040000fa
:0400f400c403000041
:020000040000fa
:0400f800c40300003d
:020000040000fa
:0400fc00c403000039
:020000040000fa
:04010000c403000034
:020000040000fa
:04010400c403000030
:020000040000fa
:04010800c40300002c
:020000040000fa
:04010c00c403000028
:020000040000fa
:04011000c403000024
:020000040000fa
:04011400c403000020
:020000040000fa
:04011800c40300001c
:020000040000fa
:04011c00c403000018
:020000040000fa
:04012000c403000014
:020000040000fa
:04012400c403000010
:020000040000fa
:04012800c40300000c
:020000040000fa
:04012c00c403000008
:020000040000fa
:04013000c403000004
:020000040000fa
:04013400c403000000
:020000040000fa
:04013800c4030000fc
:020000040000fa
:04013c00c4030000f8
:020000040000fa
:04014000c4030000f4
:020000040000fa
:04014400c4030000f0
:020000040000fa
:04014800c4030000ec
:020000040000fa
:04014c00c4030000e8
:020000040000fa
:04015000c4030000e4
:020000040000fa
:04015400c4030000e0
:020000040000fa
:04015800c4030000dc
:020000040000fa
:04015c00c4030000d8
:020000040000fa
:04016000c4030000d4
:020000040000fa
:04016400c4030000d0
:020000040000fa
:04016800c4030000cc
:020000040000fa
:04020800c40300002b
:020000040000fa
:04020c00c403000027
:020000040000fa
:04021000c403000023
:020000040000fa
:04021400c40300001f
:020000040000fa
:04021800c40300001b
:020000040000fa
:04021c00c403000017
:020000040000fa
:04022000c403000013
:020000040000fa
:04022400c40300000f
:020000040000fa
:04022800c40300000b
:020000040000fa
:04022c00c403000007
:020000040000fa
:04023000c403000003
:020000040000fa
:04023400c4030000ff
:020000040000fa
:04023800c4030000fb
:020000040000fa
:04023c00c4030000f7
:020000040000fa
:04024000c4030000f3
:020000040000fa
:04024400c4030000ef
:020000040000fa
:04024800c4030000eb
:020000040000fa
:04024c00c4030000e7
:020000040000fa
:04025000c4030000e3
:020000040000fa
:04025400c4030000df
:020000040000fa
:04025800c4030000db
:020000040000fa
:04025c00c4030000d7
:020000040000fa
:04026000c4030000d3
:020000040000fa
:04026400c4030000cf
:020000040000fa
:04026800c4030000cb
:020000040000fa
:04026c00c4030000c7
:020000040000fa
:04027000c4030000c3
:020000040000fa
:04027400c4030000bf
:020000040000fa
:04027800c4030000bb
:020000040000fa
:04027c00c4030000b7
:020000040000fa
:04028000c4030000b3
:020000040000fa
:04028400c4030000af
:020000040000fa
:04028800c4030000ab
:020000040000fa
:04028c00c4030000a7
:020000040000fa
:04029000c4030000a3
:020000040000fa
:04029400c40300009f
:020000040000fa
:04029800c40300009b
:020000040000fa
:04029c00c403000097
:020000040000fa
:0402a000c403000093
:020000040000fa
:0402a400c40300008f
:020000040000fa
:0402a800c40300008b
:020000040000fa
:0402ac00c403000087
:020000040000fa
:0402b000c403000083
:020000040000fa
:0402b400c40300007f
:020000040000fa
:0402b800c40300007b
:020000040000fa
:0402bc00c403000077
:020000040000fa
:0402c000c403000073
:020000040000fa
:0402c400c40300006f
:020000040000fa
:0402c800c40300006b
:020000040000fa
:0402cc00c403000067
:020000040000fa
:0402d000c403000063
:020000040000fa
:0402d400c40300005f
:020000040000fa
:0402d800c40300005b
:020000040000fa
:0402dc00c403000057
:020000040000fa
:0402e000c403000053
:020000040000fa
:0402e400c40300004f
:020000040000fa
:0402e800c40300004b
:020000040000fa
:0402ec00c403000047
:020000040000fa
:0402f000c403000043
:020000040000fa
:0402f400c40300003f
:020000040000fa
:0402f800c40300003b
:020000040000fa
:0402fc00c403000037
:020000040000fa
:04030000c403000032
:020000040000fa
:04030400c40300002e
:020000040000fa
:04030800c40300002a
:020000040000fa
:04030c00c403000026
:020000040000fa
:04031000c403000022
:020000040000fa
:04031400c40300001e
:020000040000fa
:04031800c40300001a
:020000040000fa
:04031c00c403000016
:020000040000fa
:04032000c403000012
:020000040000fa
:04032400c40300000e
:020000040000fa
:04032800c40300000a
:020000040000fa
:04032c00c403000006
:020000040000fa
:04033000c403000002
:020000040000fa
:04033400c4030000fe
:020000040000fa
:04033800c4030000fa
:020000040000fa
:04033c00c4030000f6
:020000040000fa
:04034000c4030000f2
:020000040000fa
:04034400c4030000ee
:020000040000fa
:04034800c4030000ea
:020000040000fa
:04034c00c4030000e6
:020000040000fa
:04035000c4030000e2
:020000040000fa
:04035400c4030000de
:020000040000fa
:04035800c4030000da
:020000040000fa
:04035c00c4030000d6
:020000040000fa
:04036000c4030000d2
:020000040000fa
:04036400c4030000ce
:020000040000fa
:04036800c4030000ca
:020000040000fa
:10040000ef8020000eff20000e0188000000000099
:10041000000020000000e000020032000001200087
:10042000200288000c000700207f2000010020002f
:1004300011000700000020000000e0000200320070
:100440000000020000000000e002020000000000c6
:100450000040da000000fe004440a9000000200037
:100460000000e0000300320000002000a00188002e
:100470004440a80000000600910188008000780038
:100480000000eb0015003700e280400032a0b4000d
:100490009101ba00e280400032a0b4009102ba009b
:1004a000e280400032a0b4000002eb00472bde00e7
:1004b000f507b200602ce10004003a000059eb009f
:1004c0008301e900fdff3e00040037006128e100e0
:1004d000010032000082eb000b00070011c3ba00dc
:1004e0001101ba000604e00003003a000200e00037
:1004f000e5ff3a0000000600f607b200960188000a
:1005000082007800f5ff37003159ba008301e90015
:100510000c0032002159ba008301e90008003200c2
:100520000400e00003003a00e280400032a0b40082
:10053000f5ff370011d9ba008301e900faff3a004c
:100540008100e800e180400032a0b4000000060015
:100550003600f800809fbe00829fbe00849fbe00d0
:10056000869fbe000000fa002b0107000080fa0001
:100570004f03be004f02be004f01be004f00be0041
:100580003600f900004006003600f800809fbe00eb
:10059000829fbe00849fbe00869fbe000000fa00be
:1005a000650207000080fa004f03be004f02be0044
:1005b0004f01be004f00be003600f90000400600ab
:1005c0000000fa007e020700f50107000028ef0096
:1005d00065020700a30107006e0207001f02070063
:1005e0003202070040002000404088001000200038
:1005f000504088000628ef000428ef00700020001b
:100600001040880010408000e30f50002d003200a1
:10061000e30f500005003e00e10f500011003200d2
:10062000e10f500015003e0056003700e50f500066
:100630004f003200e50f500008003900e60f50006f
:100640004c003200e70f50004c003a0050002000f0
:1006500040408800540107004a003700520107005b
:1006600048003700204080000000e00001003a0010
:10067000c482a800a6010700420037002040800085
:10068000e50f500006003c001a02070020408000e1
:100690000000e80020408800100020001040880082
:1006a00020408000e50f500005003400c482a900fe
:1006b00040002000104088001000200040408800ca
:1006c000300037006140800050408000808f500033
:1006d00003003a002000200010408800230037006b
:1006e000604080000000e00006003a002e01070094
:1006f000c601070020002000104088005040800004
:100700006040880060408000e10f500003003a0024
:1007100050408000e20f5000060032006040800030
:10072000e20f50000b003a0050408000e10f5000f3
:1007300008003a001c010700b40107001a01070075
:100740002000200010408800504080006040880059
:100750000600370014010700ac010700200020004c
:10076000104088005040800060408800050037003d
:10077000040037000c010700020037000228ef00d8
:10078000a0ff37009fff37000040da000000fe00a6
:10079000f4ff2f00030037004f89de00820178004c
:1007a0001b003700889fbe008a9fbe00841f780010
:1007b0007c0007004f00780011003300f0ff2f008d
:1007c000838f6c0006003b00040565000a00a7004b
:1007d0000800370009f0a6001000200008003700cc
:1007e000820f5400838f5c0003003900100020004a
:1007f00001003e000000200009f0a7000000ea0010
:100800004f05be004f04be000000e00000000600df
:10081000881f7800030478000300e00007003d0013
:1008200060001000e080180060011900e0811900ec
:1008300002003b0001f02d00030037000400070018
:1008400008f0a70001f0a0004f04780000000600a7
:10085000889fbe008a9fbe00008270000402710063
:1008600004827100260032000004be000200be00b7
:100870006011b8006b092000950220000182cf00b2
:100880000a0039000541b1000082cf00070039009d
:100890000541b1000982cf00040039000541b100d3
:1008a0000882cf00010039000541b1000542520025
:1008b000120032000a003b00828171006101640075
:1008c0008100d1000080d3008984d3000884d30044
:1008d0008b05e8000442e800f7ff3a000700370004
:1008e0000804440089844c000000480081804800ce
:1008f0008b05e9000442e900f9ff3a000300070014
:100900004f05be004f04be0000000600810020001d
:10091000618055000b003d000b00200061fe2f00a0
:100920000100e1001d00340082817100610164005a
:100930008904d1000884d3000000e800faff3a00df
:10094000710020006100640003007000020060007c
:100950000900320061044400e0844c000988a500cd
:10096000050032008b05e8006808e10002003a004b
:100970008904d1000884d300f20f20000258e1005e
:1009800005003d00c75ddd00f907b20089807500f4
:1009900008007800000006000bf827008b007800a4
:1009a000000005000004be00060007000003be00b2
:1009b0000405be000200be0002000700844f75005f
:1009c00000000600c70ade00f107b200f50fb20012
:1009d00008003200e1cf4200020032000170a000a6
:1009e00024000500810f700001003200040805009a
:1009f00044000500810f700002003a001400050059
:100a00008502e9000000400081c04800fcff3b0077
:080a10000170a00024000500a4
:020000040000fa
:100a18000000fa00881f78008440a9000040800088
:100a28000000e8000040880040408000e20f5000cd
:100a38002a003200e20f500005003e000000e000ee
:100a48000a003200e10f5000410032005100370027
:100a5800e40f500044003200e40f50001500390044
:100a6800e50f5000270032004a00370000408000a0
:100a7800cf80de0046ff070018c0b3000200280040
:100a88005351240040ff07000000e00001003d0032
:100a98000044eb000804e00035003200400020006c
:100aa800404088000028ef00100020001040880017
:100ab8003800370001408000f0042000808f50008b
:100ac8002d00340040002000404088000028ef003e
:100ad80030002000104088002e00370001408000c0
:100ae800f0042000808f50002500340040002000d2
:100af800404088000028ef003000200010408800a7
:100b080024003700a1188000a04d2000808f5000dd
:100b180002003a000a28ef000028ef005040800049
:100b28000000e00018003a0001408000f027200093
:100b3800808f5000160034001000200040408800cc
:100b48000028ef0040002000104088001100370006
:100b58000828ef000028ef0040002000104088001f
:100b6800000000000b0037000000000009003700fb
:100b780000000000070037000000000005003700f3
:100b880000000000030037000000000001003700eb
:100b9800000000004f0478000080fa000000060002
:100ba8000000fa0040408000e20f500018003200b8
:100bb800e20f500005003e000000e0000a0032008d
:100bc800e10f50000d00320022003700e40f500002
:100bd80019003200e40f500012003900e50f5000f0
:100be800170032001b00370080382100b00c880045
:100bf800cd02a800cd22a9001600370080382100b8
:100c0800b00c8800cd02a900cd22a8001100370041
:100c180080382100b00c8800cd02a900cd22a9009f
:100c28000c00370080382100b00c8800cd02a800e5
:100c3800cd22a800070037009621ef0005003700f5
:100c480080382100b00c8800cd02a800cd22a80071
:100c5800000000000080fa00000006000000fa0012
:100c680041e3a90041a3a9004143a800001a80005c
:100c78000080a1000090a100001a8800001a8000de
:100c88000040a0000050a0000060a0000070a1007b
:100c9800001a88004043a800101a800000e0a10054
:100ca80000f0a100101a880043a3a9004363a8001c
:100cb8004343a800111a800030f82f00008060001c
:100cc8000030a000101a88004203a90045e3a900db
:100cd800211a8000f00f2e00808060000010200094
:100ce80001007000201a8800f0c3b30044e3b70085
:100cf8005123a8005143a8005163a80041e3a8006c
:100d08000080fa00000006000000fa00b118800018
:100d1800a04d2000808f50000700360030002000d2
:100d2800104088001000200050408800200020005b
:100d3800404088001600370091188000a04d200020
:100d4800808f5000070036003000200010408800d7
:100d580020002000504088003000200040408800db
:100d68000b00370030002000104088000a28ef00f0
:100d780060408000e20f500003003a00200020008d
:100d880040408800020037003000200040408800c2
:100d98000080fa00000006000000fa00200580002c
:100da8000080a1000090a10000a0a00020058800fc
:100db8009440a8008440a9009621ef00f07022001a
:100dc800a00c8800800c800000a0a00000b0a0004b
:100dd80000c0a000800c8800800c80000000a100ea
:100de8000010a0000020a000800c8800900c80005b
:100df800f001b300900c880092e1a9000080fa008d
:100e0800000006000000fa0050408000e10f50008a
:100e180002003a0060092000500d88005040800010
:100e2800e20f500002003a0030022000500d880006
:100e3800504080000000e00002003a00c005200099
:100e4800500d880010002000104088000080fa0033
:100e5800000006000000fa00aa21ef00104e200052
:100e6800400d8800200d800000a0a10000b0a10066
:100e780000c0a100200d8800200d80000000a10006
:100e88000010a0000020a000200d8800300d800078
:100e9800f001b300300d8800a6e1a9000080fa0037
:100ea800000006000000fa0013e1a8001221a900c2
:100eb800900880000040a1000050a0009008880021
:100ec80090d02300700888000a21ef009500a80040
:100ed800400580000000a0000010a0000020a10034
:100ee800400588000080fa00000006000000fa00b3
:100ef8000021ef00c442a8000000000001088000a3
:100f0800107a2000808f5000fcff36000021ef008f
:100f1800c442a900000000000108800000cf23009f
:100f2800808f5000fcff36000080fa0000000600a9
:100f38000000fa008500a900304080000000e800a9
:100f4800304088003140800020072000808f50000a
:100f5800010034000228ef000080fa0000000600bb
:100f68000000fa0005e1a8000421a900200880007b
:100f78000040a0000050a0002008880090d0230066
:100f8800100888000080fa00000006000000fa003f
:100f980011e1a8001061a9001021a90080088000b3
:100fa8000040a1000050a000800888000621ef0042
:100fb8000080fa00000006000000fa00e024ef00bc
:100fc80000002e0010278800c022ef0000002e002d
:0c0fd800401688000080fa0000000600af
:020000040000fa
:100fe40008080000060000000200000004000100e0
:100ff40000010000000800000800000000000000dc
:04100400040880005c
:020000040000fa
:0410080000000000e4
:020000040000fa
:0200000401f009
:04000c00d8ff000019
:020000040000fa
:0200000401f009
:04001000fbff0000f2
:020000040000fa
:0200000401f009
:04001c00feff0000e3
:00000001FF
