:020000040000fa
:080000000002040000000000f2
:020000040000fa
:0400080006040000ea
:020000040000fa
:04000c0006040000e6
:020000040000fa
:0400100006040000e2
:020000040000fa
:0400140006040000de
:020000040000fa
:0400180006040000da
:020000040000fa
:04001c0006040000d6
:020000040000fa
:0400200006040000d2
:020000040000fa
:0400240006040000ce
:020000040000fa
:0400280006040000ca
:020000040000fa
:04002c0006040000c6
:020000040000fa
:0400300006040000c2
:020000040000fa
:0400340006040000be
:020000040000fa
:0400380006040000ba
:020000040000fa
:04003c0006040000b6
:020000040000fa
:0400400006040000b2
:020000040000fa
:0400440006040000ae
:020000040000fa
:04004800c4020000ee
:020000040000fa
:04004c0006040000a6
:020000040000fa
:0400500006040000a2
:020000040000fa
:04005400060400009e
:020000040000fa
:04005800060400009a
:020000040000fa
:04005c000604000096
:020000040000fa
:040060000604000092
:020000040000fa
:04006400060400008e
:020000040000fa
:04006800060400008a
:020000040000fa
:04006c000604000086
:020000040000fa
:040070000604000082
:020000040000fa
:04007400060400007e
:020000040000fa
:04007800060400007a
:020000040000fa
:04007c000604000076
:020000040000fa
:040080000604000072
:020000040000fa
:04008400060400006e
:020000040000fa
:04008800060400006a
:020000040000fa
:04008c00a8020000c6
:020000040000fa
:040090000604000062
:020000040000fa
:04009400060400005e
:020000040000fa
:04009800060400005a
:020000040000fa
:04009c000604000056
:020000040000fa
:0400a0000604000052
:020000040000fa
:0400a400060400004e
:020000040000fa
:0400a800060400004a
:020000040000fa
:0400ac000604000046
:020000040000fa
:0400b0000604000042
:020000040000fa
:0400b400060400003e
:020000040000fa
:0400b800060400003a
:020000040000fa
:0400bc000604000036
:020000040000fa
:0400c0000604000032
:020000040000fa
:0400c400060400002e
:020000040000fa
:0400c800060400002a
:020000040000fa
:0400cc000604000026
:020000040000fa
:0400d0000604000022
:020000040000fa
:0400d400060400001e
:020000040000fa
:0400d800060400001a
:020000040000fa
:0400dc000604000016
:020000040000fa
:0400e0000604000012
:020000040000fa
:0400e400060400000e
:020000040000fa
:0400e800060400000a
:020000040000fa
:0400ec000604000006
:020000040000fa
:0400f0000604000002
:020000040000fa
:0400f40006040000fe
:020000040000fa
:0400f80006040000fa
:020000040000fa
:0400fc0006040000f6
:020000040000fa
:0401000006040000f1
:020000040000fa
:0401040006040000ed
:020000040000fa
:0401080006040000e9
:020000040000fa
:04010c0006040000e5
:020000040000fa
:0401100006040000e1
:020000040000fa
:0401140006040000dd
:020000040000fa
:0401180006040000d9
:020000040000fa
:04011c0006040000d5
:020000040000fa
:0401200006040000d1
:020000040000fa
:0401240006040000cd
:020000040000fa
:0401280006040000c9
:020000040000fa
:04012c0006040000c5
:020000040000fa
:0401300006040000c1
:020000040000fa
:0401340006040000bd
:020000040000fa
:0401380006040000b9
:020000040000fa
:04013c0006040000b5
:020000040000fa
:0401400006040000b1
:020000040000fa
:0401440006040000ad
:020000040000fa
:0401480006040000a9
:020000040000fa
:04014c0006040000a5
:020000040000fa
:0401500006040000a1
:020000040000fa
:04015400060400009d
:020000040000fa
:040158000604000099
:020000040000fa
:04015c000604000095
:020000040000fa
:040160000604000091
:020000040000fa
:04016400060400008d
:020000040000fa
:040168000604000089
:020000040000fa
:0402080006040000e8
:020000040000fa
:04020c0006040000e4
:020000040000fa
:0402100006040000e0
:020000040000fa
:0402140006040000dc
:020000040000fa
:0402180006040000d8
:020000040000fa
:04021c0006040000d4
:020000040000fa
:0402200006040000d0
:020000040000fa
:0402240006040000cc
:020000040000fa
:0402280006040000c8
:020000040000fa
:04022c0006040000c4
:020000040000fa
:0402300006040000c0
:020000040000fa
:0402340006040000bc
:020000040000fa
:0402380006040000b8
:020000040000fa
:04023c0006040000b4
:020000040000fa
:0402400006040000b0
:020000040000fa
:0402440006040000ac
:020000040000fa
:0402480006040000a8
:020000040000fa
:04024c0006040000a4
:020000040000fa
:0402500006040000a0
:020000040000fa
:04025400060400009c
:020000040000fa
:040258000604000098
:020000040000fa
:04025c000604000094
:020000040000fa
:040260000604000090
:020000040000fa
:04026400060400008c
:020000040000fa
:040268000604000088
:020000040000fa
:04026c000604000084
:020000040000fa
:040270000604000080
:020000040000fa
:04027400060400007c
:020000040000fa
:040278000604000078
:020000040000fa
:04027c000604000074
:020000040000fa
:040280000604000070
:020000040000fa
:04028400060400006c
:020000040000fa
:040288000604000068
:020000040000fa
:04028c000604000064
:020000040000fa
:040290000604000060
:020000040000fa
:04029400060400005c
:020000040000fa
:040298000604000058
:020000040000fa
:04029c000604000054
:020000040000fa
:0402a0000604000050
:020000040000fa
:0402a400060400004c
:020000040000fa
:0402a8000604000048
:020000040000fa
:0402ac000604000044
:020000040000fa
:0402b0000604000040
:020000040000fa
:0402b400060400003c
:020000040000fa
:0402b8000604000038
:020000040000fa
:0402bc000604000034
:020000040000fa
:0402c0000604000030
:020000040000fa
:0402c400060400002c
:020000040000fa
:0402c8000604000028
:020000040000fa
:0402cc000604000024
:020000040000fa
:0402d0000604000020
:020000040000fa
:0402d400060400001c
:020000040000fa
:0402d8000604000018
:020000040000fa
:0402dc000604000014
:020000040000fa
:0402e0000604000010
:020000040000fa
:0402e400060400000c
:020000040000fa
:0402e8000604000008
:020000040000fa
:0402ec000604000004
:020000040000fa
:0402f0000604000000
:020000040000fa
:0402f40006040000fc
:020000040000fa
:0402f80006040000f8
:020000040000fa
:0402fc0006040000f4
:020000040000fa
:0403000006040000ef
:020000040000fa
:0403040006040000eb
:020000040000fa
:0403080006040000e7
:020000040000fa
:04030c0006040000e3
:020000040000fa
:0403100006040000df
:020000040000fa
:0403140006040000db
:020000040000fa
:0403180006040000d7
:020000040000fa
:04031c0006040000d3
:020000040000fa
:0403200006040000cf
:020000040000fa
:0403240006040000cb
:020000040000fa
:0403280006040000c7
:020000040000fa
:04032c0006040000c3
:020000040000fa
:0403300006040000bf
:020000040000fa
:0403340006040000bb
:020000040000fa
:0403380006040000b7
:020000040000fa
:04033c0006040000b3
:020000040000fa
:0403400006040000af
:020000040000fa
:0403440006040000ab
:020000040000fa
:0403480006040000a7
:020000040000fa
:04034c0006040000a3
:020000040000fa
:04035000060400009f
:020000040000fa
:04035400060400009b
:020000040000fa
:040358000604000097
:020000040000fa
:04035c000604000093
:020000040000fa
:04036000060400008f
:020000040000fa
:04036400060400008b
:020000040000fa
:040368000604000087
:020000040000fa
:10040000ef8020000eff20000e0188000000000099
:10041000000020000000e000020032000001200087
:10042000200288000c000700608a200001002000e4
:1004300011000700000020000000e0000200320070
:100440000000020000000000e002020000000000c6
:100450000040da000000fe004440a9000000200037
:100460000000e0000300320000002000a00188002e
:100470004440a80000000600910188008000780038
:100480000000eb0015003700e280400032a0b4000d
:100490009101ba00e280400032a0b4009102ba009b
:1004a000e280400032a0b4000002eb00472bde00e7
:1004b000f507b200602ce10004003a000059eb009f
:1004c0008301e900fdff3e00040037006128e100e0
:1004d000010032000082eb000b00070011c3ba00dc
:1004e0001101ba000604e00003003a000200e00037
:1004f000e5ff3a0000000600f607b200960188000a
:1005000082007800f5ff37003159ba008301e90015
:100510000c0032002159ba008301e90008003200c2
:100520000400e00003003a00e280400032a0b40082
:10053000f5ff370011d9ba008301e900faff3a004c
:100540008100e800e180400032a0b4000000060015
:100550003600f800809fbe00829fbe00849fbe00d0
:10056000869fbe000000fa004c0107000080fa00e0
:100570004f03be004f02be004f01be004f00be0041
:100580003600f900004006003600f800809fbe00eb
:10059000829fbe00849fbe00869fbe000000fa00be
:1005a000be0207000080fa004f03be004f02be00eb
:1005b0004f01be004f00be003600f90000400600ab
:1005c0000000fa00d7020700370207000028ef00fa
:1005d000be02070009020700c70207006502070004
:1005e0008b02070050002000504088000628ef00d2
:1005f0000428ef00500020001040880010408000c8
:10060000e30f50003d003200e30f500005003e00b4
:10061000e10f500019003200e10f50001d003e00b4
:1006200009003700e50f500072003200e50f50005e
:1006300010003900e60f500070003200e70f500044
:10064000080032006e003700400020005040880053
:10065000b5010700c462a9000c28ef005a02070088
:10066000690037005000200050408800ae010700ac
:1006700065003700ac0107006300370020408000b0
:100680000000e00001003a00c462a8002102070057
:100690005d00370020408000e50f500006003c0060
:1006a0006d020700204080000000e8002040880024
:1006b000100020001040880020408000e50f50000e
:1006c0000d003400c462a900604080000000e0001a
:1006d00006003a000428ef00400020001040880087
:1006e0001000200050408800030037003000200038
:1006f000104088000c28ef00430037004140800084
:1007000060408000808f500006003a0040002000ca
:10071000504088008401070020002000104088001d
:100720003300370040408000e20f50000e003a00d6
:1007300060408000e10f500004003a0020002000db
:1007400050408800200207007701070060408000c9
:100750000000e00004003a00200020005040880023
:10076000190207007001070040408000e10f5000af
:100770000e003a0060408000e20f500004003a0092
:1007800030002000504088000f020700660107007b
:10079000604080000000e00004003a0030002000cb
:1007a00050408800080207005f01070040408000b9
:1007b0000000e0000e003a0060408000e10f5000b1
:1007c00004003a002000200050408800fe0107008d
:1007d0005501070060408000e20f500004003a001d
:1007e0003000200050408800f70107004e0107004c
:1007f00005003700cc82a800030037000200370054
:100800000228ef007dff37007cff37000040da0050
:100810000000fe00f4ff2f00030037004f89de00c8
:10082000820178001b003700889fbe008a9fbe00af
:10083000841f78007c0007004f007800110033000f
:10084000f0ff2f00838f6c0006003b00040565005d
:100850000a00a7000800370009f0a60010002000d9
:1008600008003700820f5400838f5c0003003900ba
:100870001000200001003e000000200009f0a70049
:100880000000ea004f05be004f04be000000e0007b
:1008900000000600881f7800030478000300e000d1
:1008a00007003d0060001000e080180060011900a2
:1008b000e081190002003b0001f02d000300370029
:1008c0000400070008f0a70001f0a0004f04780022
:1008d00000000600889fbe008a9fbe000082700054
:1008e0000402710004827100260032000004be0080
:1008f0000200be006011b8006b09200095022000c4
:100900000182cf000a0039000541b1000082cf000a
:10091000070039000541b1000982cf000400390009
:100920000541b1000882cf00010039000541b10046
:1009300005425200120032000a003b008281710021
:10094000610164008100d1000080d3008984d3005c
:100950000884d3008b05e8000442e800f7ff3a0062
:10096000070037000804440089844c000000480058
:10097000818048008b05e9000442e900f9ff3a0054
:10098000030007004f05be004f04be000000060034
:1009900081002000618055000b003d000b0020000d
:1009a00061fe2f000100e1001d0034008281710012
:1009b000610164008904d1000884d3000000e800cc
:1009c000faff3a007100200061006400030070002b
:1009d000020060000900320061044400e0844c0021
:1009e0000988a500050032008b05e8006808e100d1
:1009f00002003a008904d1000884d300f20f2000dd
:100a00000258e10005003d00c75ddd00f907b200b6
:100a10008980750008007800000006000bf82700a8
:100a20008b007800000005000004be0006000700ef
:100a30000003be000405be000200be000200070065
:100a4000844f750000000600c70ade00f107b200ff
:100a5000f50fb20008003200e1cf42000200320080
:100a60000170a00024000500810f70000100320019
:100a70000408050044000500810f700002003a00e0
:100a8000140005008502e9000000400081c0480014
:0c0a9000fcff3b000170a00024000500ea
:020000040000fa
:100a9c000000fa00881f78008720a9000040800021
:100aac000000e8000040880050408000e20f500039
:100abc0043003200e20f500005003e000000e00051
:100acc000a003200e10f500068003200900037003d
:100adc00e40f500038003200e40f50001e003900c3
:100aec00e50f50004e0032008900370001408000b5
:100afc00900f2000808f500003003c0000d0270096
:100b0c00400d880082003700f0702200400d8800f4
:100b1c0000408000cf80de003dff070018c0b3000e
:100b2c00020028005351240037ff07000000e000aa
:100b3c0001003d000044eb000804e00063003200bb
:100b4c0040002000504088000028ef0010002000da
:100b5c00104088006e00370001408000700c2000af
:100b6c00808f50005b00340040408000e10f50004b
:100b7c0002003a000828ef000500370040408000d2
:100b8c000000e00002003a002000200040408800f5
:100b9c0040002000504088000028ef002016800004
:100bac00680060000000e0004c00320010002000e3
:100bbc0010408800560037000028ef005400370022
:100bcc0001408000700c2000808f500045003400e4
:100bdc0040408000e20f500002003a000828ef006d
:100bec0005003700404080000000e00002003a00a1
:100bfc001000200040408800400020005040880039
:100c0c000028ef0020168000680060000000e00063
:100c1c003600320010002000104088003c003700e5
:100c2c00a1188000904d2000808f500002003600eb
:100c3c000c28ef000028ef00604080000000e0006e
:100c4c002c003a0001408000f04a2000808f5000b8
:100c5c002a00340010002000504088000028ef00cb
:100c6c00400020001040880029003700014080001f
:100c7c00007d2000808f500003003c0000f4210018
:100c8c00400d88002200370000d02700400d88005e
:100c9c005116800000002100008060000000e00080
:100cac001800320011168000000420000080600043
:100cbc000000e000150032000a28ef000028ef00c9
:100ccc004000200010408800110037000000000098
:100cdc000f003700000000000d003700000000007e
:100cec000b00370000000000090037000000000076
:100cfc00070037000000000005003700000000006e
:100d0c000300370000000000010037000000000065
:100d1c004f0478000080fa00000006000000fa0082
:100d2c0050408000e20f500018003200e20f5000db
:100d3c0005003e000000e0000a003200e10f500008
:100d4c000d00320028003700e40f50001d00320067
:100d5c00e40f500014003900e50f50001d00320064
:100d6c002100370080382100500d8800cc42a800ab
:100d7c00c442a9001c00370080382100500d8800a7
:100d8c00cc42a900c442a8001700370080382100cb
:100d9c00500d8800f0702200400d8800cc42a90054
:100dac00c442a9001000370080382100500d880083
:100dbc00f0702200400d8800cc42a800c442a8006c
:100dcc0009003700aa21ef0000f42100400d880033
:100ddc000500370080382100500d8800cc42a80057
:100dec00c442a800000000000080fa0000000600c9
:100dfc000000fa0041e3a90041a3a9004143a80067
:100e0c00001a80000080a1000090a100001a880048
:100e1c00001a80000040a0000050a0000060a0005c
:100e2c000070a100001a88004043a800101a80002e
:100e3c0000e0a10000f0a100101a880043a3a90053
:100e4c004363a8004343a800111a800030f82f0018
:100e5c00008060000030a000101a88004203a90036
:100e6c0045e3a900211a8000f00f2e00808060005d
:100e7c000010200001007000201a8800f0c3b3009d
:100e8c0044e3b7005123a8005143a8005163a800c4
:100e9c0041e3a8000080fa00000006000000fa0000
:100eac00800580000040a1000050a1000060a0005f
:100ebc00800588009720a8008720a900aa21ef00b0
:100ecc0000f42100400d8800200d800000a0a0003f
:100edc0000b0a00000c0a000200d8800200d8000f4
:100eec000000a1000010a0000020a000200d880030
:100efc00300d8000f001b300300d8800a6e1a90090
:100f0c000080fa00000006000000fa00b118800012
:100f1c00a04d2000808f50000500360010002000ee
:100f2c006040880030002000104088000c00370022
:100f3c0091188000a04d2000808f500005003600d5
:100f4c002000200060408800300020001040880005
:100f5c00030037000c28ef00300020001040880000
:100f6c000080fa00000006000000fa00c005200016
:100f7c00000d8800104e2000f00c8800d00c800072
:100f8c0000a0a10000b0a10000c0a100d00c8800fe
:100f9c00d00c80000000a1000010a0000020a000d8
:100fac00d00c8800e00c8000f001b300e00c88004d
:100fbc009ce1a9000080fa00000006000000fa0085
:100fcc0060408000e10f500002003a0060092000f0
:100fdc00000d880060408000e20f500002003a00d3
:100fec0030022000000d8800604080000000e0000e
:100ffc0002003a00c0052000000d88000080fa00b5
:10100c00000006000000fa0013e1a8001221a9005c
:10101c00900880000040a1000050a00090088800bb
:10102c0040422f00700888000a21ef009500a800ac
:10103c00400580000000a0000010a0000020a100ce
:10104c00400588000080fa00000006000000fa004d
:10105c000021ef00cc82a8000000000001088000f5
:10106c0040e82100808f5000fcff36000021ef008b
:10107c00cc82a900000000000108800000cf2300f2
:10108c00808f5000fcff36000080fa000000060044
:10109c000000fa008500a900304080000000e80044
:1010ac00304088003140800020072000808f5000a5
:1010bc00010034000228ef000080fa000000060056
:1010cc000000fa0005e1a8000421a9002008800016
:1010dc000040a0000050a0002008880090d0230001
:1010ec00100888000080fa00000006000000fa00da
:1010fc0011e1a8001061a9001021a900800880004e
:10110c000040a1000050a000800888000621ef00dc
:10111c000080fa00000006000000fa00e024ef0056
:10112c0000002e0010278800c022ef00c0c2a800cb
:10113c0000002f00401688000080fa000000060016
:020000040000fa
:10114c000a08000004000000020000000400010076
:10115c0000000000000800000a0000000000000071
:04116c00b80880003f
:020000040000fa
:04117000000000007b
:020000040000fa
:0200000401f009
:04000c00d8ff000019
:020000040000fa
:0200000401f009
:04001000fbff0000f2
:020000040000fa
:0200000401f009
:04001c00feff0000e3
:00000001FF
